{
  "contractName": "SimpleStorage",
  "abi": [
    {
      "inputs": [
        {
          "internalType": "address",
          "name": "",
          "type": "address"
        },
        {
          "internalType": "uint256",
          "name": "",
          "type": "uint256"
        }
      ],
      "name": "Transaction",
      "outputs": [
        {
          "internalType": "string",
          "name": "userInput",
          "type": "string"
        },
        {
          "internalType": "string",
          "name": "uniqueID",
          "type": "string"
        },
        {
          "internalType": "string",
          "name": "campaignName",
          "type": "string"
        }
      ],
      "stateMutability": "view",
      "type": "function",
      "constant": true
    },
    {
      "inputs": [
        {
          "internalType": "address",
          "name": "",
          "type": "address"
        },
        {
          "internalType": "uint256",
          "name": "",
          "type": "uint256"
        }
      ],
      "name": "users",
      "outputs": [
        {
          "internalType": "string",
          "name": "campaignName",
          "type": "string"
        },
        {
          "internalType": "string",
          "name": "ngoname",
          "type": "string"
        },
        {
          "internalType": "string",
          "name": "description",
          "type": "string"
        },
        {
          "internalType": "string",
          "name": "status",
          "type": "string"
        },
        {
          "internalType": "string",
          "name": "startDate",
          "type": "string"
        },
        {
          "internalType": "string",
          "name": "endDate",
          "type": "string"
        },
        {
          "internalType": "uint256",
          "name": "amount",
          "type": "uint256"
        },
        {
          "internalType": "string",
          "name": "walletId",
          "type": "string"
        }
      ],
      "stateMutability": "view",
      "type": "function",
      "constant": true
    },
    {
      "inputs": [
        {
          "internalType": "string",
          "name": "_campaignName",
          "type": "string"
        },
        {
          "internalType": "string",
          "name": "_ngoname",
          "type": "string"
        },
        {
          "internalType": "string",
          "name": "_description",
          "type": "string"
        },
        {
          "internalType": "string",
          "name": "_status",
          "type": "string"
        },
        {
          "internalType": "string",
          "name": "_startDate",
          "type": "string"
        },
        {
          "internalType": "string",
          "name": "_endDate",
          "type": "string"
        },
        {
          "internalType": "uint256",
          "name": "_amount",
          "type": "uint256"
        },
        {
          "internalType": "string",
          "name": "_walletId",
          "type": "string"
        }
      ],
      "name": "storeUserDetails",
      "outputs": [],
      "stateMutability": "nonpayable",
      "type": "function"
    },
    {
      "inputs": [],
      "name": "getUserDetails",
      "outputs": [
        {
          "components": [
            {
              "internalType": "string",
              "name": "campaignName",
              "type": "string"
            },
            {
              "internalType": "string",
              "name": "ngoname",
              "type": "string"
            },
            {
              "internalType": "string",
              "name": "description",
              "type": "string"
            },
            {
              "internalType": "string",
              "name": "status",
              "type": "string"
            },
            {
              "internalType": "string",
              "name": "startDate",
              "type": "string"
            },
            {
              "internalType": "string",
              "name": "endDate",
              "type": "string"
            },
            {
              "internalType": "uint256",
              "name": "amount",
              "type": "uint256"
            },
            {
              "internalType": "string",
              "name": "walletId",
              "type": "string"
            }
          ],
          "internalType": "struct SimpleStorage.CampaignDetails[]",
          "name": "",
          "type": "tuple[]"
        }
      ],
      "stateMutability": "view",
      "type": "function",
      "constant": true
    },
    {
      "inputs": [
        {
          "internalType": "string",
          "name": "_userInput",
          "type": "string"
        },
        {
          "internalType": "string",
          "name": "_uniqueID",
          "type": "string"
        },
        {
          "internalType": "string",
          "name": "_campaignName",
          "type": "string"
        }
      ],
      "name": "storeTransactionDetails",
      "outputs": [],
      "stateMutability": "nonpayable",
      "type": "function"
    },
    {
      "inputs": [],
      "name": "getTransactionDetails",
      "outputs": [
        {
          "components": [
            {
              "internalType": "string",
              "name": "userInput",
              "type": "string"
            },
            {
              "internalType": "string",
              "name": "uniqueID",
              "type": "string"
            },
            {
              "internalType": "string",
              "name": "campaignName",
              "type": "string"
            }
          ],
          "internalType": "struct SimpleStorage.TransactionDetails[]",
          "name": "",
          "type": "tuple[]"
        }
      ],
      "stateMutability": "view",
      "type": "function",
      "constant": true
    }
  ],
  "bytecode": "0x608060405234801561001057600080fd5b50611c98806100206000396000f3fe608060405234801561001057600080fd5b50600436106100625760003560e01c806354a02f9e14610067578063661714131461009e5780638d6db82a146100ba578063942886be146100ec578063b10a41e51461010a578063d8a5cc0314610126575b600080fd5b610081600480360381019061007c91906110fb565b610144565b6040516100959897969594939291906111da565b60405180910390f35b6100b860048036038101906100b391906113be565b610561565b005b6100d460048036038101906100cf91906110fb565b6106b2565b6040516100e393929190611538565b60405180910390f35b6100f4610891565b6040516101019190611779565b60405180910390f35b610124600480360381019061011f919061179b565b610d35565b005b61012e610e01565b60405161013b9190611962565b60405180910390f35b6000602052816000526040600020818154811061016057600080fd5b906000526020600020906008020160009150915050806000018054610184906119b3565b80601f01602080910402602001604051908101604052809291908181526020018280546101b0906119b3565b80156101fd5780601f106101d2576101008083540402835291602001916101fd565b820191906000526020600020905b8154815290600101906020018083116101e057829003601f168201915b505050505090806001018054610212906119b3565b80601f016020809104026020016040519081016040528092919081815260200182805461023e906119b3565b801561028b5780601f106102605761010080835404028352916020019161028b565b820191906000526020600020905b81548152906001019060200180831161026e57829003601f168201915b5050505050908060020180546102a0906119b3565b80601f01602080910402602001604051908101604052809291908181526020018280546102cc906119b3565b80156103195780601f106102ee57610100808354040283529160200191610319565b820191906000526020600020905b8154815290600101906020018083116102fc57829003601f168201915b50505050509080600301805461032e906119b3565b80601f016020809104026020016040519081016040528092919081815260200182805461035a906119b3565b80156103a75780601f1061037c576101008083540402835291602001916103a7565b820191906000526020600020905b81548152906001019060200180831161038a57829003601f168201915b5050505050908060040180546103bc906119b3565b80601f01602080910402602001604051908101604052809291908181526020018280546103e8906119b3565b80156104355780601f1061040a57610100808354040283529160200191610435565b820191906000526020600020905b81548152906001019060200180831161041857829003601f168201915b50505050509080600501805461044a906119b3565b80601f0160208091040260200160405190810160405280929190818152602001828054610476906119b3565b80156104c35780601f10610498576101008083540402835291602001916104c3565b820191906000526020600020905b8154815290600101906020018083116104a657829003601f168201915b5050505050908060060154908060070180546104de906119b3565b80601f016020809104026020016040519081016040528092919081815260200182805461050a906119b3565b80156105575780601f1061052c57610100808354040283529160200191610557565b820191906000526020600020905b81548152906001019060200180831161053a57829003601f168201915b5050505050905088565b6000803373ffffffffffffffffffffffffffffffffffffffff1673ffffffffffffffffffffffffffffffffffffffff1681526020019081526020016000206040518061010001604052808a815260200189815260200188815260200187815260200186815260200185815260200184815260200183815250908060018154018082558091505060019003906000526020600020906008020160009091909190915060008201518160000190816106179190611b90565b50602082015181600101908161062d9190611b90565b5060408201518160020190816106439190611b90565b5060608201518160030190816106599190611b90565b50608082015181600401908161066f9190611b90565b5060a08201518160050190816106859190611b90565b5060c0820151816006015560e08201518160070190816106a59190611b90565b5050505050505050505050565b600160205281600052604060002081815481106106ce57600080fd5b9060005260206000209060030201600091509150508060000180546106f2906119b3565b80601f016020809104026020016040519081016040528092919081815260200182805461071e906119b3565b801561076b5780601f106107405761010080835404028352916020019161076b565b820191906000526020600020905b81548152906001019060200180831161074e57829003601f168201915b505050505090806001018054610780906119b3565b80601f01602080910402602001604051908101604052809291908181526020018280546107ac906119b3565b80156107f95780601f106107ce576101008083540402835291602001916107f9565b820191906000526020600020905b8154815290600101906020018083116107dc57829003601f168201915b50505050509080600201805461080e906119b3565b80601f016020809104026020016040519081016040528092919081815260200182805461083a906119b3565b80156108875780601f1061085c57610100808354040283529160200191610887565b820191906000526020600020905b81548152906001019060200180831161086a57829003601f168201915b5050505050905083565b60606000803373ffffffffffffffffffffffffffffffffffffffff1673ffffffffffffffffffffffffffffffffffffffff168152602001908152602001600020805480602002602001604051908101604052809291908181526020016000905b82821015610d2c578382906000526020600020906008020160405180610100016040529081600082018054610925906119b3565b80601f0160208091040260200160405190810160405280929190818152602001828054610951906119b3565b801561099e5780601f106109735761010080835404028352916020019161099e565b820191906000526020600020905b81548152906001019060200180831161098157829003601f168201915b505050505081526020016001820180546109b7906119b3565b80601f01602080910402602001604051908101604052809291908181526020018280546109e3906119b3565b8015610a305780601f10610a0557610100808354040283529160200191610a30565b820191906000526020600020905b815481529060010190602001808311610a1357829003601f168201915b50505050508152602001600282018054610a49906119b3565b80601f0160208091040260200160405190810160405280929190818152602001828054610a75906119b3565b8015610ac25780601f10610a9757610100808354040283529160200191610ac2565b820191906000526020600020905b815481529060010190602001808311610aa557829003601f168201915b50505050508152602001600382018054610adb906119b3565b80601f0160208091040260200160405190810160405280929190818152602001828054610b07906119b3565b8015610b545780601f10610b2957610100808354040283529160200191610b54565b820191906000526020600020905b815481529060010190602001808311610b3757829003601f168201915b50505050508152602001600482018054610b6d906119b3565b80601f0160208091040260200160405190810160405280929190818152602001828054610b99906119b3565b8015610be65780601f10610bbb57610100808354040283529160200191610be6565b820191906000526020600020905b815481529060010190602001808311610bc957829003601f168201915b50505050508152602001600582018054610bff906119b3565b80601f0160208091040260200160405190810160405280929190818152602001828054610c2b906119b3565b8015610c785780601f10610c4d57610100808354040283529160200191610c78565b820191906000526020600020905b815481529060010190602001808311610c5b57829003601f168201915b5050505050815260200160068201548152602001600782018054610c9b906119b3565b80601f0160208091040260200160405190810160405280929190818152602001828054610cc7906119b3565b8015610d145780601f10610ce957610100808354040283529160200191610d14565b820191906000526020600020905b815481529060010190602001808311610cf757829003601f168201915b505050505081525050815260200190600101906108f1565b50505050905090565b600160003373ffffffffffffffffffffffffffffffffffffffff1673ffffffffffffffffffffffffffffffffffffffff16815260200190815260200160002060405180606001604052808581526020018481526020018381525090806001815401808255809150506001900390600052602060002090600302016000909190919091506000820151816000019081610dcd9190611b90565b506020820151816001019081610de39190611b90565b506040820151816002019081610df99190611b90565b505050505050565b6060600160003373ffffffffffffffffffffffffffffffffffffffff1673ffffffffffffffffffffffffffffffffffffffff168152602001908152602001600020805480602002602001604051908101604052809291908181526020016000905b8282101561104a5783829060005260206000209060030201604051806060016040529081600082018054610e95906119b3565b80601f0160208091040260200160405190810160405280929190818152602001828054610ec1906119b3565b8015610f0e5780601f10610ee357610100808354040283529160200191610f0e565b820191906000526020600020905b815481529060010190602001808311610ef157829003601f168201915b50505050508152602001600182018054610f27906119b3565b80601f0160208091040260200160405190810160405280929190818152602001828054610f53906119b3565b8015610fa05780601f10610f7557610100808354040283529160200191610fa0565b820191906000526020600020905b815481529060010190602001808311610f8357829003601f168201915b50505050508152602001600282018054610fb9906119b3565b80601f0160208091040260200160405190810160405280929190818152602001828054610fe5906119b3565b80156110325780601f1061100757610100808354040283529160200191611032565b820191906000526020600020905b81548152906001019060200180831161101557829003601f168201915b50505050508152505081526020019060010190610e62565b50505050905090565b6000604051905090565b600080fd5b600080fd5b600073ffffffffffffffffffffffffffffffffffffffff82169050919050565b600061109282611067565b9050919050565b6110a281611087565b81146110ad57600080fd5b50565b6000813590506110bf81611099565b92915050565b6000819050919050565b6110d8816110c5565b81146110e357600080fd5b50565b6000813590506110f5816110cf565b92915050565b600080604083850312156111125761111161105d565b5b6000611120858286016110b0565b9250506020611131858286016110e6565b9150509250929050565b600081519050919050565b600082825260208201905092915050565b60005b8381101561117557808201518184015260208101905061115a565b60008484015250505050565b6000601f19601f8301169050919050565b600061119d8261113b565b6111a78185611146565b93506111b7818560208601611157565b6111c081611181565b840191505092915050565b6111d4816110c5565b82525050565b60006101008201905081810360008301526111f5818b611192565b90508181036020830152611209818a611192565b9050818103604083015261121d8189611192565b905081810360608301526112318188611192565b905081810360808301526112458187611192565b905081810360a08301526112598186611192565b905061126860c08301856111cb565b81810360e083015261127a8184611192565b90509998505050505050505050565b600080fd5b600080fd5b7f4e487b7100000000000000000000000000000000000000000000000000000000600052604160045260246000fd5b6112cb82611181565b810181811067ffffffffffffffff821117156112ea576112e9611293565b5b80604052505050565b60006112fd611053565b905061130982826112c2565b919050565b600067ffffffffffffffff82111561132957611328611293565b5b61133282611181565b9050602081019050919050565b82818337600083830152505050565b600061136161135c8461130e565b6112f3565b90508281526020810184848401111561137d5761137c61128e565b5b61138884828561133f565b509392505050565b600082601f8301126113a5576113a4611289565b5b81356113b584826020860161134e565b91505092915050565b600080600080600080600080610100898b0312156113df576113de61105d565b5b600089013567ffffffffffffffff8111156113fd576113fc611062565b5b6114098b828c01611390565b985050602089013567ffffffffffffffff81111561142a57611429611062565b5b6114368b828c01611390565b975050604089013567ffffffffffffffff81111561145757611456611062565b5b6114638b828c01611390565b965050606089013567ffffffffffffffff81111561148457611483611062565b5b6114908b828c01611390565b955050608089013567ffffffffffffffff8111156114b1576114b0611062565b5b6114bd8b828c01611390565b94505060a089013567ffffffffffffffff8111156114de576114dd611062565b5b6114ea8b828c01611390565b93505060c06114fb8b828c016110e6565b92505060e089013567ffffffffffffffff81111561151c5761151b611062565b5b6115288b828c01611390565b9150509295985092959890939650565b600060608201905081810360008301526115528186611192565b905081810360208301526115668185611192565b9050818103604083015261157a8184611192565b9050949350505050565b600081519050919050565b600082825260208201905092915050565b6000819050602082019050919050565b600082825260208201905092915050565b60006115cc8261113b565b6115d681856115b0565b93506115e6818560208601611157565b6115ef81611181565b840191505092915050565b611603816110c5565b82525050565b600061010083016000830151848203600086015261162782826115c1565b9150506020830151848203602086015261164182826115c1565b9150506040830151848203604086015261165b82826115c1565b9150506060830151848203606086015261167582826115c1565b9150506080830151848203608086015261168f82826115c1565b91505060a083015184820360a08601526116a982826115c1565b91505060c08301516116be60c08601826115fa565b5060e083015184820360e08601526116d682826115c1565b9150508091505092915050565b60006116ef8383611609565b905092915050565b6000602082019050919050565b600061170f82611584565b611719818561158f565b93508360208202850161172b856115a0565b8060005b85811015611767578484038952815161174885826116e3565b9450611753836116f7565b925060208a0199505060018101905061172f565b50829750879550505050505092915050565b600060208201905081810360008301526117938184611704565b905092915050565b6000806000606084860312156117b4576117b361105d565b5b600084013567ffffffffffffffff8111156117d2576117d1611062565b5b6117de86828701611390565b935050602084013567ffffffffffffffff8111156117ff576117fe611062565b5b61180b86828701611390565b925050604084013567ffffffffffffffff81111561182c5761182b611062565b5b61183886828701611390565b9150509250925092565b600081519050919050565b600082825260208201905092915050565b6000819050602082019050919050565b6000606083016000830151848203600086015261188b82826115c1565b915050602083015184820360208601526118a582826115c1565b915050604083015184820360408601526118bf82826115c1565b9150508091505092915050565b60006118d8838361186e565b905092915050565b6000602082019050919050565b60006118f882611842565b611902818561184d565b9350836020820285016119148561185e565b8060005b85811015611950578484038952815161193185826118cc565b945061193c836118e0565b925060208a01995050600181019050611918565b50829750879550505050505092915050565b6000602082019050818103600083015261197c81846118ed565b905092915050565b7f4e487b7100000000000000000000000000000000000000000000000000000000600052602260045260246000fd5b600060028204905060018216806119cb57607f821691505b6020821081036119de576119dd611984565b5b50919050565b60008190508160005260206000209050919050565b60006020601f8301049050919050565b600082821b905092915050565b600060088302611a467fffffffffffffffffffffffffffffffffffffffffffffffffffffffffffffffff82611a09565b611a508683611a09565b95508019841693508086168417925050509392505050565b6000819050919050565b6000611a8d611a88611a83846110c5565b611a68565b6110c5565b9050919050565b6000819050919050565b611aa783611a72565b611abb611ab382611a94565b848454611a16565b825550505050565b600090565b611ad0611ac3565b611adb818484611a9e565b505050565b5b81811015611aff57611af4600082611ac8565b600181019050611ae1565b5050565b601f821115611b4457611b15816119e4565b611b1e846119f9565b81016020851015611b2d578190505b611b41611b39856119f9565b830182611ae0565b50505b505050565b600082821c905092915050565b6000611b6760001984600802611b49565b1980831691505092915050565b6000611b808383611b56565b9150826002028217905092915050565b611b998261113b565b67ffffffffffffffff811115611bb257611bb1611293565b5b611bbc82546119b3565b611bc7828285611b03565b600060209050601f831160018114611bfa5760008415611be8578287015190505b611bf28582611b74565b865550611c5a565b601f198416611c08866119e4565b60005b82811015611c3057848901518255600182019150602085019450602081019050611c0b565b86831015611c4d5784890151611c49601f891682611b56565b8355505b6001600288020188555050505b50505050505056fea2646970667358221220546d2e435fed12d6295f69d3048583825497354675771e56a639fac392756b4464736f6c63430008110033",
  "immutableReferences": {},
  "source": "// SPDX-License-Identifier: MIT\r\npragma solidity >=0.5.0 <0.9.0;\r\n\r\ncontract SimpleStorage {\r\n    struct CampaignDetails {\r\n        string campaignName;\r\n        string ngoname;\r\n        string description;\r\n        string status;\r\n        string startDate;\r\n        string endDate;\r\n        uint amount;\r\n        string walletId;\r\n    }\r\n     struct TransactionDetails {\r\n        string userInput;\r\n        string uniqueID;\r\n        string campaignName;\r\n   \r\n    }\r\n\r\n    mapping(address => CampaignDetails[]) public users;\r\n\r\n    function storeUserDetails(\r\n        string memory _campaignName,\r\n        string memory _ngoname,\r\n        string memory _description,\r\n        string memory _status,\r\n        string memory _startDate,\r\n        string memory _endDate,\r\n        uint _amount,\r\n        string memory _walletId\r\n    ) public {\r\n        users[msg.sender].push(CampaignDetails({\r\n            campaignName: _campaignName,\r\n            ngoname: _ngoname,\r\n            description: _description,\r\n            status: _status,\r\n            startDate: _startDate,\r\n            endDate: _endDate,\r\n            amount: _amount,\r\n            walletId: _walletId\r\n        }));\r\n    }\r\n\r\n    function getUserDetails() public view returns (CampaignDetails[] memory) {\r\n        return users[msg.sender];\r\n    }\r\n\r\n\r\n    mapping(address => TransactionDetails[]) public Transaction;\r\n\r\n    function storeTransactionDetails(\r\n        string memory _userInput,\r\n        string memory _uniqueID,\r\n        string memory _campaignName\r\n   \r\n    ) public {\r\n        Transaction[msg.sender].push(TransactionDetails({\r\n            userInput: _userInput,\r\n            uniqueID: _uniqueID,\r\n            campaignName: _campaignName\r\n            \r\n        }));\r\n    }\r\n\r\n    function getTransactionDetails() public view returns (TransactionDetails[] memory) {\r\n        return Transaction[msg.sender];\r\n    }\r\n}\r\n\r\n",
  "sourcePath": "C:\\Users\\adity\\Downloads\\Alpha-ver-main\\Alpha-ver-main\\contracts\\SimpleStorage.sol",
  "compiler": {
    "name": "solc",
    "version": "0.8.17+commit.8df45f5f.Emscripten.clang"
  },
  "schemaVersion": "3.4.16",
  "updatedAt": "2024-09-13T13:42:11.578Z",
  "networkType": "ethereum",
  "devdoc": {
    "kind": "dev",
    "methods": {},
    "version": 1
  },
  "userdoc": {
    "kind": "user",
    "methods": {},
    "version": 1
  }
}